:060000000A128A110C280F
:10000800FE00030EF0000A08F1000A128A11BD2F43
:100018000A128A110F28FA01FB0183120313C50182
:10002800C601C701C801C901CA01CB01CC01CD0174
:10003800CE0183010A128A119B2E83120313AF018A
:10004800A81F272828283528A509A609A709A80927
:10005800A50A0319A60A0319A70A0319A80AAF01D2
:10006800AF0AAC1F382839284828A909AA09AB09BA
:10007800AC09A90A0319AA0A0319AB0A0319AC0A9D
:100088000130FF007F08AF060030B3000030B20037
:100098000030B1000030B0002808270426042504E9
:1000A800031957285828A528AE01AE0A6828013038
:1000B800AD000310A50DA60DA70DA80DAD0B5D286D
:1000C8000130FF007F08AE07A81F6B286C285B284B
:1000D8000130AD000310B00DB10DB20DB30DAD0B75
:1000E8006E2828082C02031D832827082B02031DCD
:1000F800832826082A02031D832825082902031CB1
:100108008628872896282508A9022608031C260F72
:10011800AA022708031C270FAB022808031C280F74
:10012800AC02301401300310A80CA70CA60CA50CC7
:10013800FF3E031D97280130AE02031DA428A52801
:100148006C282F080319A928AA28B528B009B109CD
:10015800B209B309B00A0319B10A0319B20A03199B
:10016800B30A3308A8003208A7003108A6003008EF
:10017800A50008000A128A11EC270A128A11F60152
:10018800F60A01300A128A116D270A128A112730DD
:10019800F5008030F6000A128A114D250A128A11DC
:1001A8004C3083120313A00048080A128A11462211
:1001B8000A128A114C30F5000030F6000A128A1132
:1001C8004D250A128A1183120313B401FF30B500BA
:1001D800B6010030BA000030B9000130B800F43080
:1001E800B7007B080A128A1199230A128A1183120E
:1001F80003133508C6003408C5004608A1004508A1
:10020800A0004930A2000A128A11BF220A128A11DC
:10021800F601F60A02300A128A116D270A128A11AB
:100228001D30F5008030F6000A128A114D250A1299
:100238008A118312031349080A128A11A7270A127E
:100248008A112E300A128A11A7270A128A118312DC
:1002580003134A080A128A11A7270A128A1183125D
:1002680003134B080A128A11A7270A128A1156305B
:100278000A128A11A7270A128A1108008312031387
:100288003708A8003608A7003508A6003408A500D6
:100298000030AC007A30AB001230AA000030A90060
:1002A8000A128A1121200A128A11831203132808BC
:1002B800C0002708BF002608BE002508BD00FF3083
:1002C800B800FF30B900FF30BA00FF30BB00003083
:1002D800A8000030A7000030A6004030A500400864
:1002E800AC003F08AB003E08AA003D08A9000A126E
:1002F8008A1121200A128A11831203132508B807CC
:1003080026080318260F89298A29B90727080318F8
:10031800270F8F299029BA0728080318280ABB072E
:100328003B08C4003A08C3003908C2003808C100B5
:100338004108831603139900831203134108B80078
:100348004208B9004308BA004408BB000830BC00A2
:100358003B0DBB0CBA0CB90CB80CBC0BAC2938085B
:10036800831603139A00181283120313981718168A
:10037800831603138C160B178B17831203138C1217
:100388000800831203133708A8003608A7003508A9
:10039800A6003408A5000030AC007A30AB0012305B
:1003A800AA000030A9000A128A1121200A128A1113
:1003B800831203132808C0002708BF002608BE00C0
:1003C8002508BD00FF30B800FF30B900FF30BA0083
:1003D800FF30BB000030A8000030A7000030A600A6
:1003E8004030A5004008AC003F08AB003E08AA001A
:1003F8003D08A9000A128A1121200A128A118312C3
:1004080003132508B80726080318260F0C2A0D2AF7
:10041800B90727080318270F122A132ABA0728082A
:100428000318280ABB073B08C4003A08C300390868
:10043800C2003808C10041088316031399008312CB
:1004480003134108B8004208B9004308BA00440839
:10045800BB000830BC003B0DBB0CBA0CB90CB80C87
:10046800BC0B2F2A3808831603139A00181283121C
:10047800031398178316031398160C128312031389
:100488000C12080083120313A7000A30F200003090
:10049800F3002708A100A2012108F4002208F500B2
:1004A8000A128A1132230A128A117208831203135C
:1004B800A8000A30F2000030F3002708A100A201CA
:1004C8002108F4002208F5000A128A1154240A129D
:1004D8008A11720883120313A6000A30F200003052
:1004E800F3002808A100A2012108F4002208F50061
:1004F8000A128A1132230A128A117208831203130C
:10050800A3000A30F2000030F3002808A100A2017D
:100518002108F4002208F5000A128A1154240A124C
:100528008A11720883120313A5000A30F200003002
:10053800F3002308A100A2012108F4002208F50015
:100548000A128A1154240A128A1172088312031398
:10055800A4002008023E84002608303E8313800051
:10056800200A84002508303E8000200884002408E2
:10057800303E800008000A30F2000030F300831299
:1005880003132108F5002008F4000A128A11D72560
:100598000A128A11730883120313AC007208AB00A5
:1005A8000A30F2000030F3002108F5002008F400BA
:1005B8000A128A11D8260A128A11730883120313A1
:1005C800AA007208A9000A30F2000030F3002C08D3
:1005D800F5002B08F4000A128A11D7250A128A118D
:1005E800730883120313A4007208A3000A30F200F0
:1005F8000030F3002C08F5002B08F4000A128A11C9
:10060800D8260A128A11730883120313A8007208E5
:10061800A7000A30F2000030F3002408F500230890
:10062800F4000A128A11D8260A128A117308831252
:100638000313A6007208A5002208023E84002908B8
:10064800303E83138000220A84002708303E800051
:10065800220884002508303E80000800F701F31FB7
:10066800362B372B3E2BF209F309F20A0319F30A4A
:10067800F701F70AF51F412B422B4B2BF409F5091B
:10068800F40A0319F50A0130FF007F08F706F8019C
:10069800F901720873040319522B532B8A2BF601A4
:1006A800F60A612B01300310F20DF30DFF3E031D16
:1006B800572B0130FF007F08F607F31F642B652BCB
:1006C800562B01300310F80DF90DFF3E031D662B64
:1006D80073087502031D722B72087402031C752BB4
:1006E800762B7D2B7208F4027308031CF503F502C0
:1006F800781401300310F30CF20CFF3E031D7E2B1F
:100708000130F602031D892B8A2B652B7708031904
:100718008E2B8F2B942BF809F909F80A0319F90A7B
:100728007908F3007808F200080083120313C30065
:1007380034083502A500A601031CA603A701A61BC1
:10074800A7032708A80034084302F200F301031C9A
:10075800F303F401F31BF4037408F5003608BB0037
:10076800BC01BD01BE013708BF003808C000390808
:10077800C1003A08C2003B08BF023C08031C3C0FFA
:10078800C62BC72BC0023D08031C3D0FCC2BCD2B1D
:10079800C1023E08031C3E0FD22BD32BC2024208D3
:1007A800F9004108F8004008F7003F08F6000A126F
:1007B8008A1105250A128A11750883120313AC00E1
:1007C8007408AB007308AA007208A9000A128A11FB
:1007D80021200A128A118312031336082507B40050
:1007E8000030031801302607B5000800F700771815
:1007F800FE2B022C831603139F17052C8316031355
:100808009F137218082C0C2C831603131F160F2C19
:10081800831603131F127218122C162C8316031337
:100828009F16192C831603139F12322C3F30831204
:1008380003139F05482C831203131F083F394038C0
:100848009F00482C831203131F083F3980389F00EC
:10085800482CC030831203139F04482C7308F500FA
:10086800F6017608003A03193A2C482C7508013A23
:1008780003191A2C053A03191F2C0C3A0319262CB4
:100888001C3A03192D2C482C7408F500F50DF50DAC
:1008980083121F087506C33975069F001F140800C8
:1008A800F701F51F582C592C602CF409F509F40AA6
:1008B8000319F50AF701F70AF31F632C642C692C56
:1008C800F209F309F20A0319F30A72087304031907
:1008D8006E2C6F2C9E2CF601F60A7D2C013003102D
:1008E800F20DF30DFF3E031D732C0130FF007F084E
:1008F800F607F31F802C812C722C73087502031DD8
:10090800872C72087402031C8A2C8B2C912C720879
:10091800F4027308031CF503F50201300310F30C0D
:10092800F20CFF3E031D922C0130F602031D9D2C94
:100938009E2C812C77080319A22CA32CA82CF4092F
:10094800F509F40A0319F50A7508F3007408F200AA
:10095800080083120313091000300A128A115D2659
:100968000A128A118230F700DD30F600F60BBA2C35
:10097800F70BBA2CBF2C30300A128A118D270A12B5
:100988008A110D30F700FB30F600F60BC92CF70B77
:10099800C92CCE2C30300A128A118D270A128A11DE
:1009A8004230F600F60BD62C000030300A128A11BD
:1009B8008D270A128A1138300A128A118D270A12D5
:1009C8008A110C300A128A118D270A128A110130F5
:1009D8000A128A118D270A128A1106300A128A1100
:1009E8008D270A128A110630F8001330F700AD304F
:1009F800F600F60BFD2CF70BFD2CF80BFD2C042D47
:100A08000800003083120313A4000030A300003054
:100A1800A2000030A100721C122D132D2A2D760879
:100A2800A107770803110318013E03191C2DA2071B
:100A3800780803110318013E0319232DA307790829
:100A480003110318013E03192A2DA4070130A00041
:100A58000310F60DF70DF80DF90DA00B2C2D013034
:100A68000310F50CF40CF30CF20CFF3E031D342DAF
:100A78007508740473047204031D432D442D0F2D4F
:100A88002408F5002308F4002208F3002108F200E6
:100A9800080083120313A001A101762D2008750711
:100AA800F8007608F7000318F70AA01F5C2DF70373
:100AB8007708F900790883120313FF007808840087
:100AC8000A128A1193250A128A110A128A11A72773
:100AD8000A128A11013083120313A0070318A10A0E
:100AE8000030A10720087507F8007608F7000318FA
:100AF800F70AA01F802DF7037708F90079088312F9
:100B08000313FF00780884000A128A1193250A1239
:100B18008A11003A031D912D922D522D0800FF1BBA
:100B28009D2D83137F1883170008840A0319FF0A71
:100B3800080005308A000408840A82070034563405
:100B48006F346C34743461346A34653420346434FA
:100B580065346C34203470346F34743465346E34D6
:100B6800633469346F346D346534743472346F347B
:100B78003A342034003456346F346C34743461346D
:100B8800673465343A342034003443346F34753470
:100B98006E347434653472343A3420340034563444
:100BA8000A340D340034F601F7017208730403198E
:100BB800DE2DDF2D162EF801F80AED2D0130031079
:100BC800F20DF30DFF3E031DE32D0130FF007F08FA
:100BD800F807F31FF02DF12DE22D01300310F60D6B
:100BE800F70DFF3E031DF22D73087502031DFE2D40
:100BF80072087402031C012E022E092E7208F402D8
:100C08007308031CF503F502761401300310F30C86
:100C1800F20CFF3E031D0A2E0130F802031D152EAB
:100C2800162EF12D7708F3007608F200080001303F
:100C38000A128A1148270A128A11831203134908D3
:100C48000A128A11E1270A128A112E300A128A1111
:100C5800E1270A128A11831203134A080A128A1119
:100C6800E1270A128A11831203134B080A128A1108
:100C7800E1270A128A1131300A128A1148270A120A
:100C88008A112B307A06031D4A2E4B2E522E013024
:100C9800FF007F0883120313C8075C2E2D307A06E5
:100CA800031D572E582E5C2E013083120313C802E1
:100CB8000800F200721C612E622E662E8312031346
:100CC8000814692E831203130810F21C6C2E6D2E63
:100CD8006F2E8814702E8810721D732E742E762E27
:100CE8000815772E0811F21D7A2E7B2E7D2E881579
:100CF8007E2E8811721E812E822E842E0816852E35
:100D08000812F21E882E892E8B2E88168C2E881299
:100D1800721F8F2E902E922E0817932E0813F21FF3
:100D2800962E972E992E88179A2E881308000A1245
:100D38008A1112270A128A110A128A11AD240A127C
:100D48008A11003083120313B7000030B600253033
:100D5800B5008030B4000A128A1142210A128A11A1
:100D6800003083120313B7000030B6002530B500F9
:100D78008030B4000A128A11C5210A128A110A1297
:100D88008A11D3270A128A117308FB000A128A11E2
:100D9800BE200A128A110A128A111B260A128A1107
:100DA800C32E0A128A110C28720873040319DD2E47
:100DB800DE2E0D2FF601F60AEC2E01300310F20D8F
:100DC800F30DFF3E031DE22E0130FF007F08F607FA
:100DD800F31FEF2EF02EE12E73087502031DF62E79
:100DE80072087402031CF92EFA2E002F7208F402FE
:100DF8007308031CF503F50201300310F30CF20C21
:100E0800FF3E031D012F0130F602031D0C2F0D2F8D
:100E1800F02E7508F3007408F20008008316031713
:100E2800880120308900203083160313860083123E
:100E380003138601831603138801831203138801A1
:100E4800831603138901831203138901FF30831664
:100E58000313870083120313870183160313850185
:100E68008312031385017030831603138F040F1444
:100E7800F2010830F3000D30F40000300A128A1134
:100E8800FA230A128A110800F500F301F4015F2F12
:100E98007308750784000A128A119D250A128A119F
:100EA8000A128A11E1270A128A110130F30703187E
:100EB800F40A0030F4077308750784000A128A11CF
:100EC8009D250A128A11003A031D6B2F6C2F4C2F97
:100ED8000800F7007703031D722F732F7D2F760804
:100EE8007F3EF80078080A128A118D270A128A11A3
:100EF8008C2F02307706031D822F832F8C2F7608C4
:100F0800BF3EF80078080A128A118D270A128A1142
:100F18000800F50083120313091075080A128A11D4
:100F28005D260A128A118312031389140B30F40008
:100F38006230F300F30B9E2FF40B9E2F00008312F8
:100F4800031389100800F4008312031309147408AA
:100F58000A128A115D260A128A1183120313891450
:100F68001A30F300F30BB62F000083120313891015
:100F78000800831203138C1EC22FC32FCC2F0A1212
:100F88008A11F3270A128A11FA00831203138C12AA
:100F980071088A00700E8300FE0E7E0E090083120F
:100FA80003139F149F18D92FDA2FD62F1E08F3008A
:100FB800831603131E08F2000800F20083120313BD
:100FC8000C1EE72FE82FE22F0C1272089900080078
:100FD80001300A128A118D270A128A110800831219
:060FE80003131A080800C3
:04400E00D420FF3F7C
:00000001FF
