:060000000A128A110E280D
:10000800FE00030EF0000A08F1007F08F2000A1251
:100018008A11952B0A128A111128FA0183010A12F2
:100028008A11502B83120313AA000A30F300003000
:10003800F4002A08A500A6012508F5002608F60000
:100048000A128A11A1200A128A1173088312031353
:10005800AC000A30F3000030F4002A08A500A6011D
:100068002508F5002608F6000A128A11C1210A128D
:100078008A11730883120313A7000A30F3000030B3
:10008800F4002C08A500A6012508F5002608F600AE
:100098000A128A11A1200A128A1173088312031303
:1000A800AB000A30F3000030F4002C08A500A601CC
:1000B8002508F5002608F6000A128A11C1210A123D
:1000C8008A11730883120313A8000A30F300003062
:1000D800F4002B08A500A6012508F5002608F6005F
:1000E8000A128A11A1200A128A110A30F30000307C
:1000F800F400831203132B08A500A6012508F500B8
:100108002608F6000A128A11C1210A128A117308F8
:1001180083120313A9002408023E84002708303EF6
:1001280083138000240A84002808303E80002408B5
:1001380084002908303E8000080083120313A101BF
:10014800F41FA728A828AF28F309F409F30A03190C
:10015800F40AA101A10AF61FB228B328BC28F509A0
:10016800F609F50A0319F60A0130FF007F08A1060F
:10017800A201A301730874040319C328C428FB2827
:10018800A001A00AD22801300310F30DF40DFF3EA0
:10019800031DC8280130FF007F08A007F41FD528D9
:1001A800D628C72801300310A20DA30DFF3E031D5A
:1001B800D72874087602031DE32873087502031C08
:1001C800E628E728EE287308F5027408031CF603EE
:1001D800F602221401300310F40CF30CFF3E031D49
:1001E800EF280130A002031DFA28FB28D628210891
:1001F8000319FF2800290529A209A309A20A03193E
:10020800A30A2308F4002208F300080000300A12A9
:100218008A1173230A128A113430F800F130F7007A
:10022800F70B1429F80B1429192903300A128A111B
:10023800B1230A128A110D30F800FB30F700F70BD2
:100248002329F80B2329282903300A128A11B123FC
:100258000A128A111D30F8009130F700F70B322985
:10026800F80B322903300A128A11B1230A128A11B3
:1002780002300A128A11B1230A128A1102300A12B4
:100288008A11B1230A128A1108300A128A11B1237D
:100298000A128A1100300A128A11B1230A128A112D
:1002A8000C300A128A11B1230A128A1100300A127C
:1002B8008A11B1230A128A1106300A128A11B1234F
:1002C8000A128A110800F80078186B296F2983161A
:1002D80003139F177229831603139F137318752925
:1002E8007929831603131F167C29831603131F12FB
:1002F80073187F298329831603139F16862983166B
:1003080003139F129F293F30831203139F05B529BA
:10031800831203131F083F3940389F00B529831201
:1003280003131F083F3980389F00B529C030831256
:1003380003139F04B5297408F600F7017708003AFB
:100348000319A729B5297608013A03198729053A17
:1003580003198C290C3A031993291C3A03199A2971
:10036800B5297508F600F60DF60D83121F087606F6
:10037800C33976069F001F140800F801F61FC52927
:10038800C629CD29F509F609F50A0319F60AF8016F
:10039800F80AF41FD029D129D629F309F409F30A58
:1003A8000319F40A730874040319DB29DC290B2ADE
:1003B800F701F70AEA2901300310F30DF40DFF3EA7
:1003C800031DE0290130FF007F08F707F41FED291E
:1003D800EE29DF2974087602031DF42973087502D3
:1003E800031CF729F829FE297308F5027408031C71
:1003F800F603F60201300310F40CF30CFF3E031D64
:10040800FF290130F702031D0A2A0B2AEE29780872
:1004180003190F2A102A152AF509F609F50A0319EE
:10042800F60A7608F4007508F3000800831203132F
:10043800A0002003031D212A222A412A77087F3E93
:10044800A3002308F80004300310F80CFF3E031D36
:10045800282A7808A10023080F39A20021080A12C7
:100468008A11B1230A128A118312031322080A126D
:100478008A11B1230A128A11652A02302006031D47
:10048800462A472A652A7708BF3EA3002308F800B2
:1004980004300310F80CFF3E031D4D2A7808A10014
:1004A80023080F39A20021080A128A11B1230A125F
:1004B8008A118312031322080A128A11B1230A121D
:1004C8008A11080083120313A301A4018F2A2308A9
:1004D8007807A1007908A0000318A00AA31F752AAD
:1004E800A003831203132008A2002208FF0021089A
:1004F80084000A128A11CB230A128A110A128A115D
:10050800F1220A128A11013083120313A307031878
:10051800A40A0030A40723087807A1007908A000DE
:100528000318A00AA31F992AA00383120313200803
:10053800A2002208FF00210884000A128A11CB2396
:100548000A128A11003A031DAA2AAB2A6B2A08004C
:100558008316031788012030890083160313850149
:100568008312031385018316031386018312031371
:1005780086018316031388018312031388018316E7
:100588000313870183120313870170308316031343
:100598008F040F1423300A128A11E1230A128A11D8
:1005A800F3010830F4000D30F50000300A128A110A
:1005B80067210A128A118B178B16F83083160313DA
:1005C8008105811232308312031381000B110A1244
:1005D8008A110A210A128A110800F70077080F39D0
:1005E800F5007708F039F60083120313081576082A
:1005F800F40004300310F40CFF3E031DFE2A7408B7
:100608000A128A1173230A128A1183120313881596
:100618001A30F400F40B0E2B000083120313881118
:1006280075080A128A1173230A128A118312031396
:1006380088151A30F400F40B1F2B000083120313E3
:10064800881108000A128A1113240A128A11053027
:10065800F70001300A128A111A220A128A1101308F
:10066800F8008030F9000A128A1166220A128A11EB
:100678002D3083120313A4007A080A128A11162057
:100688000A128A112D30F8000030F9000A128A1176
:1006980066220A128A1108000A128A11AC220A126A
:1006A8008A11823083120313B100DD30B000B00B21
:1006B8005B2BB10B5B2B0A128A1105240A128A11D3
:1006C8007408FA007A088312031385000A128A1143
:1006D80026230A128A11552B0A128A110E28F300B2
:1006E800731C772B782B7C2B8312031308167F2B14
:1006F800831203130812F31C822B832B852B881675
:10070800862B8812731D892B8A2B8C2B08178D2B0F
:100718000813F31D902B912B932B8817942B881378
:1007280008000B1D982B992B9E2B32308312031334
:1007380081000B110B1CA12BA22BA82B0A128A11CA
:10074800F4230A128A110B107208FF0071088A003C
:10075800700E8300FE0E7E0E0900F600831203134E
:10076800081176080A128A1173230A128A11831251
:10077800031388150B30F5006230F400F40BC22B1C
:10078800F50BC22B00008312031388110800FF1B0E
:10079800D52B83137F1883170008840A0319FF0ACF
:1007A800080003308A000408840A820700345034A1
:1007B8004F3454343A3420340034F3007308FF00C3
:1007C8007F0883160313860481137308FF007F08CC
:1007D80095048B157308FF007F0896048B17080093
:1007E800831203130618F92BFA2BFE2B0130FF0096
:1007F8007F0885078618012C022C042C01308502FD
:100808000800831203139F149F180B2C0C2C082C20
:100818001E08F400831603131E08F30008000030B6
:100828000A128A11B1230A128A1101300A128A1196
:08083800B1230A128A11080025
:04400E00D420FF3F7C
:00000001FF
